{
    "contractName": "BasicVotingTokenZepplin",
    "abi": [
        {
            "inputs": [],
            "stateMutability": "nonpayable",
            "type": "constructor"
        },
        {
            "anonymous": false,
            "inputs": [
                {
                    "indexed": true,
                    "internalType": "address",
                    "name": "owner",
                    "type": "address"
                },
                {
                    "indexed": true,
                    "internalType": "address",
                    "name": "spender",
                    "type": "address"
                },
                {
                    "indexed": false,
                    "internalType": "uint256",
                    "name": "value",
                    "type": "uint256"
                }
            ],
            "name": "Approval",
            "type": "event"
        },
        {
            "anonymous": false,
            "inputs": [
                {
                    "indexed": true,
                    "internalType": "address",
                    "name": "from",
                    "type": "address"
                },
                {
                    "indexed": true,
                    "internalType": "address",
                    "name": "to",
                    "type": "address"
                },
                {
                    "indexed": false,
                    "internalType": "uint256",
                    "name": "value",
                    "type": "uint256"
                }
            ],
            "name": "Transfer",
            "type": "event"
        },
        {
            "inputs": [
                {
                    "internalType": "address",
                    "name": "owner",
                    "type": "address"
                },
                {
                    "internalType": "address",
                    "name": "spender",
                    "type": "address"
                }
            ],
            "name": "allowance",
            "outputs": [
                {
                    "internalType": "uint256",
                    "name": "",
                    "type": "uint256"
                }
            ],
            "stateMutability": "view",
            "type": "function"
        },
        {
            "inputs": [
                {
                    "internalType": "address",
                    "name": "spender",
                    "type": "address"
                },
                {
                    "internalType": "uint256",
                    "name": "amount",
                    "type": "uint256"
                }
            ],
            "name": "approve",
            "outputs": [
                {
                    "internalType": "bool",
                    "name": "",
                    "type": "bool"
                }
            ],
            "stateMutability": "nonpayable",
            "type": "function"
        },
        {
            "inputs": [
                {
                    "internalType": "address",
                    "name": "account",
                    "type": "address"
                }
            ],
            "name": "balanceOf",
            "outputs": [
                {
                    "internalType": "uint256",
                    "name": "",
                    "type": "uint256"
                }
            ],
            "stateMutability": "view",
            "type": "function"
        },
        {
            "inputs": [],
            "name": "decimals",
            "outputs": [
                {
                    "internalType": "uint8",
                    "name": "",
                    "type": "uint8"
                }
            ],
            "stateMutability": "view",
            "type": "function"
        },
        {
            "inputs": [
                {
                    "internalType": "address",
                    "name": "spender",
                    "type": "address"
                },
                {
                    "internalType": "uint256",
                    "name": "subtractedValue",
                    "type": "uint256"
                }
            ],
            "name": "decreaseAllowance",
            "outputs": [
                {
                    "internalType": "bool",
                    "name": "",
                    "type": "bool"
                }
            ],
            "stateMutability": "nonpayable",
            "type": "function"
        },
        {
            "inputs": [
                {
                    "internalType": "address",
                    "name": "spender",
                    "type": "address"
                },
                {
                    "internalType": "uint256",
                    "name": "addedValue",
                    "type": "uint256"
                }
            ],
            "name": "increaseAllowance",
            "outputs": [
                {
                    "internalType": "bool",
                    "name": "",
                    "type": "bool"
                }
            ],
            "stateMutability": "nonpayable",
            "type": "function"
        },
        {
            "inputs": [
                {
                    "internalType": "address",
                    "name": "potentialVoter",
                    "type": "address"
                }
            ],
            "name": "isNewVoter",
            "outputs": [
                {
                    "internalType": "bool",
                    "name": "",
                    "type": "bool"
                }
            ],
            "stateMutability": "view",
            "type": "function"
        },
        {
            "inputs": [
                {
                    "internalType": "address",
                    "name": "to",
                    "type": "address"
                },
                {
                    "internalType": "uint256",
                    "name": "amount",
                    "type": "uint256"
                }
            ],
            "name": "mint",
            "outputs": [],
            "stateMutability": "nonpayable",
            "type": "function"
        },
        {
            "inputs": [],
            "name": "name",
            "outputs": [
                {
                    "internalType": "string",
                    "name": "",
                    "type": "string"
                }
            ],
            "stateMutability": "view",
            "type": "function"
        },
        {
            "inputs": [],
            "name": "requestToken",
            "outputs": [],
            "stateMutability": "nonpayable",
            "type": "function"
        },
        {
            "inputs": [],
            "name": "symbol",
            "outputs": [
                {
                    "internalType": "string",
                    "name": "",
                    "type": "string"
                }
            ],
            "stateMutability": "view",
            "type": "function"
        },
        {
            "inputs": [],
            "name": "totalSupply",
            "outputs": [
                {
                    "internalType": "uint256",
                    "name": "",
                    "type": "uint256"
                }
            ],
            "stateMutability": "view",
            "type": "function"
        },
        {
            "inputs": [
                {
                    "internalType": "address",
                    "name": "to",
                    "type": "address"
                },
                {
                    "internalType": "uint256",
                    "name": "amount",
                    "type": "uint256"
                }
            ],
            "name": "transfer",
            "outputs": [
                {
                    "internalType": "bool",
                    "name": "",
                    "type": "bool"
                }
            ],
            "stateMutability": "nonpayable",
            "type": "function"
        },
        {
            "inputs": [
                {
                    "internalType": "address",
                    "name": "from",
                    "type": "address"
                },
                {
                    "internalType": "address",
                    "name": "to",
                    "type": "address"
                },
                {
                    "internalType": "uint256",
                    "name": "amount",
                    "type": "uint256"
                }
            ],
            "name": "transferFrom",
            "outputs": [
                {
                    "internalType": "bool",
                    "name": "",
                    "type": "bool"
                }
            ],
            "stateMutability": "nonpayable",
            "type": "function"
        }
    ],
    "bytecode": "608060405234801561001057600080fd5b506040518060400160405280601781526020017f4261736963566f74696e67546f6b656e5a6570706c696e000000000000000000815250604051806040016040528060038152602001624d544b60e81b8152508160039080519060200190610079929190610095565b50805161008d906004906020840190610095565b505050610169565b8280546100a19061012e565b90600052602060002090601f0160209004810192826100c35760008555610109565b82601f106100dc57805160ff1916838001178555610109565b82800160010185558215610109579182015b828111156101095782518255916020019190600101906100ee565b50610115929150610119565b5090565b5b80821115610115576000815560010161011a565b600181811c9082168061014257607f821691505b6020821081141561016357634e487b7160e01b600052602260045260246000fd5b50919050565b610ad4806101786000396000f3fe608060405234801561001057600080fd5b50600436106100ea5760003560e01c80634d7ec6281161008c57806395d89b411161006657806395d89b41146101d0578063a457c2d7146101d8578063a9059cbb146101eb578063dd62ed3e146101fe57600080fd5b80634d7ec6281461018c57806370a0823114610194578063746697ce146101bd57600080fd5b806323b872dd116100c857806323b872dd14610142578063313ce56714610155578063395093511461016457806340c10f191461017757600080fd5b806306fdde03146100ef578063095ea7b31461010d57806318160ddd14610130575b600080fd5b6100f7610211565b60405161010491906108d8565b60405180910390f35b61012061011b366004610949565b6102a3565b6040519015158152602001610104565b6002545b604051908152602001610104565b610120610150366004610973565b6102bb565b60405160128152602001610104565b610120610172366004610949565b6102df565b61018a610185366004610949565b610301565b005b61018a61030f565b6101346101a23660046109af565b6001600160a01b031660009081526020819052604090205490565b6101206101cb3660046109af565b6103b0565b6100f7610414565b6101206101e6366004610949565b610423565b6101206101f9366004610949565b61049e565b61013461020c3660046109d1565b6104ac565b60606003805461022090610a04565b80601f016020809104026020016040519081016040528092919081815260200182805461024c90610a04565b80156102995780601f1061026e57610100808354040283529160200191610299565b820191906000526020600020905b81548152906001019060200180831161027c57829003601f168201915b5050505050905090565b6000336102b18185856104d7565b5060019392505050565b6000336102c98582856105fb565b6102d4858585610675565b506001949350505050565b6000336102b18185856102f283836104ac565b6102fc9190610a55565b6104d7565b61030b8282610819565b5050565b610318336103b0565b15156001146103615760405162461bcd60e51b815260206004820152601060248201526f63616e277420766f746520747769636560801b60448201526064015b60405180910390fd5b6005805460018101825560008290527f036b6384b5eca791c62761152d0c79bb0604c104a5fb6f4eb0703f3154bb3db00180546001600160a01b031916339081179091556103ae91610819565b565b6000805b60055481101561040b57600581815481106103d1576103d1610a6d565b6000918252602090912001546001600160a01b03848116911614156103f95750600092915050565b8061040381610a83565b9150506103b4565b50600192915050565b60606004805461022090610a04565b6000338161043182866104ac565b9050838110156104915760405162461bcd60e51b815260206004820152602560248201527f45524332303a2064656372656173656420616c6c6f77616e63652062656c6f77604482015264207a65726f60d81b6064820152608401610358565b6102d482868684036104d7565b6000336102b1818585610675565b6001600160a01b03918216600090815260016020908152604080832093909416825291909152205490565b6001600160a01b0383166105395760405162461bcd60e51b8152602060048201526024808201527f45524332303a20617070726f76652066726f6d20746865207a65726f206164646044820152637265737360e01b6064820152608401610358565b6001600160a01b03821661059a5760405162461bcd60e51b815260206004820152602260248201527f45524332303a20617070726f766520746f20746865207a65726f206164647265604482015261737360f01b6064820152608401610358565b6001600160a01b0383811660008181526001602090815260408083209487168084529482529182902085905590518481527f8c5be1e5ebec7d5bd14f71427d1e84f3dd0314c0f7b2291e5b200ac8c7c3b925910160405180910390a3505050565b600061060784846104ac565b9050600019811461066f57818110156106625760405162461bcd60e51b815260206004820152601d60248201527f45524332303a20696e73756666696369656e7420616c6c6f77616e63650000006044820152606401610358565b61066f84848484036104d7565b50505050565b6001600160a01b0383166106d95760405162461bcd60e51b815260206004820152602560248201527f45524332303a207472616e736665722066726f6d20746865207a65726f206164604482015264647265737360d81b6064820152608401610358565b6001600160a01b03821661073b5760405162461bcd60e51b815260206004820152602360248201527f45524332303a207472616e7366657220746f20746865207a65726f206164647260448201526265737360e81b6064820152608401610358565b6001600160a01b038316600090815260208190526040902054818110156107b35760405162461bcd60e51b815260206004820152602660248201527f45524332303a207472616e7366657220616d6f756e7420657863656564732062604482015265616c616e636560d01b6064820152608401610358565b6001600160a01b03848116600081815260208181526040808320878703905593871680835291849020805487019055925185815290927fddf252ad1be2c89b69c2b068fc378daa952ba7f163c4a11628f55a4df523b3ef910160405180910390a361066f565b6001600160a01b03821661086f5760405162461bcd60e51b815260206004820152601f60248201527f45524332303a206d696e7420746f20746865207a65726f2061646472657373006044820152606401610358565b80600260008282546108819190610a55565b90915550506001600160a01b038216600081815260208181526040808320805486019055518481527fddf252ad1be2c89b69c2b068fc378daa952ba7f163c4a11628f55a4df523b3ef910160405180910390a35050565b600060208083528351808285015260005b81811015610905578581018301518582016040015282016108e9565b81811115610917576000604083870101525b50601f01601f1916929092016040019392505050565b80356001600160a01b038116811461094457600080fd5b919050565b6000806040838503121561095c57600080fd5b6109658361092d565b946020939093013593505050565b60008060006060848603121561098857600080fd5b6109918461092d565b925061099f6020850161092d565b9150604084013590509250925092565b6000602082840312156109c157600080fd5b6109ca8261092d565b9392505050565b600080604083850312156109e457600080fd5b6109ed8361092d565b91506109fb6020840161092d565b90509250929050565b600181811c90821680610a1857607f821691505b60208210811415610a3957634e487b7160e01b600052602260045260246000fd5b50919050565b634e487b7160e01b600052601160045260246000fd5b60008219821115610a6857610a68610a3f565b500190565b634e487b7160e01b600052603260045260246000fd5b6000600019821415610a9757610a97610a3f565b506001019056fea26469706673582212201078c6b92df8a3a42d0df560bc5f89441c22e0da08460d7ba346606589adcb4164736f6c634300080a0033",
    "sourcePath": "c:/Dropbox/allSaves/smartContracts/blockchain-voting-mechanism-main/contracts/VotingCoin.sol",
    "compiler": {
        "name": "solc",
        "version": "0.8.10+commit.fc410830"
    },
    "functionHashes": {
        "allowance(address,address)": "dd62ed3e",
        "approve(address,uint256)": "095ea7b3",
        "balanceOf(address)": "70a08231",
        "decimals()": "313ce567",
        "decreaseAllowance(address,uint256)": "a457c2d7",
        "increaseAllowance(address,uint256)": "39509351",
        "isNewVoter(address)": "746697ce",
        "mint(address,uint256)": "40c10f19",
        "name()": "06fdde03",
        "requestToken()": "4d7ec628",
        "symbol()": "95d89b41",
        "totalSupply()": "18160ddd",
        "transfer(address,uint256)": "a9059cbb",
        "transferFrom(address,address,uint256)": "23b872dd"
    },
    "gasEstimates": {
        "creation": {
            "codeDepositCost": "554400",
            "executionCost": "infinite",
            "totalCost": "infinite"
        },
        "external": {
            "allowance(address,address)": "infinite",
            "approve(address,uint256)": "24647",
            "balanceOf(address)": "2585",
            "decimals()": "222",
            "decreaseAllowance(address,uint256)": "26994",
            "increaseAllowance(address,uint256)": "27045",
            "isNewVoter(address)": "infinite",
            "mint(address,uint256)": "50889",
            "name()": "infinite",
            "requestToken()": "infinite",
            "symbol()": "infinite",
            "totalSupply()": "2349",
            "transfer(address,uint256)": "51112",
            "transferFrom(address,address,uint256)": "infinite"
        }
    }
}