{
    "contractName": "ProposalFactory",
    "abi": [
        {
            "inputs": [],
            "name": "allProposal",
            "outputs": [
                {
                    "internalType": "contract Proposal[]",
                    "name": "",
                    "type": "address[]"
                }
            ],
            "stateMutability": "view",
            "type": "function"
        },
        {
            "inputs": [
                {
                    "internalType": "string",
                    "name": "_name",
                    "type": "string"
                },
                {
                    "internalType": "string",
                    "name": "_description",
                    "type": "string"
                }
            ],
            "name": "makeNewProposal",
            "outputs": [],
            "stateMutability": "nonpayable",
            "type": "function"
        },
        {
            "inputs": [
                {
                    "internalType": "uint256",
                    "name": "",
                    "type": "uint256"
                }
            ],
            "name": "proposals",
            "outputs": [
                {
                    "internalType": "contract Proposal",
                    "name": "",
                    "type": "address"
                }
            ],
            "stateMutability": "view",
            "type": "function"
        }
    ],
    "bytecode": "608060405234801561001057600080fd5b50610cf6806100206000396000f3fe608060405234801561001057600080fd5b50600436106100415760003560e01c8063013cf08b146100465780634181469f14610076578063bb3d1d231461008b575b600080fd5b6100596100543660046101a7565b6100a0565b6040516001600160a01b0390911681526020015b60405180910390f35b610089610084366004610263565b6100ca565b005b610093610138565b60405161006d91906102c7565b600081815481106100b057600080fd5b6000918252602090912001546001600160a01b0316905081565b600082826040516100da9061019a565b6100e5929190610361565b604051809103906000f080158015610101573d6000803e3d6000fd5b5081546001810183556000928352602090922090910180546001600160a01b0319166001600160a01b039092169190911790555050565b6060600080548060200260200160405190810160405280929190818152602001828054801561019057602002820191906000526020600020905b81546001600160a01b03168152600190910190602001808311610172575b5050505050905090565b6109318061039083390190565b6000602082840312156101b957600080fd5b5035919050565b634e487b7160e01b600052604160045260246000fd5b600082601f8301126101e757600080fd5b813567ffffffffffffffff80821115610202576102026101c0565b604051601f8301601f19908116603f0116810190828211818310171561022a5761022a6101c0565b8160405283815286602085880101111561024357600080fd5b836020870160208301376000602085830101528094505050505092915050565b6000806040838503121561027657600080fd5b823567ffffffffffffffff8082111561028e57600080fd5b61029a868387016101d6565b935060208501359150808211156102b057600080fd5b506102bd858286016101d6565b9150509250929050565b6020808252825182820181905260009190848201906040850190845b818110156103085783516001600160a01b0316835292840192918401916001016102e3565b50909695505050505050565b6000815180845260005b8181101561033a5760208185018101518683018201520161031e565b8181111561034c576000602083870101525b50601f01601f19169290920160200192915050565b6040815260006103746040830185610314565b82810360208401526103868185610314565b9594505050505056fe60806040523480156200001157600080fd5b5060405162000931380380620009318339810160408190526200003491620001ed565b600080546001600160a01b0319163317905581516200005b9060029060208501906200007a565b508051620000719060039060208401906200007a565b50505062000294565b828054620000889062000257565b90600052602060002090601f016020900481019282620000ac5760008555620000f7565b82601f10620000c757805160ff1916838001178555620000f7565b82800160010185558215620000f7579182015b82811115620000f7578251825591602001919060010190620000da565b506200010592915062000109565b5090565b5b808211156200010557600081556001016200010a565b634e487b7160e01b600052604160045260246000fd5b600082601f8301126200014857600080fd5b81516001600160401b038082111562000165576200016562000120565b604051601f8301601f19908116603f0116810190828211818310171562000190576200019062000120565b81604052838152602092508683858801011115620001ad57600080fd5b600091505b83821015620001d15785820183015181830184015290820190620001b2565b83821115620001e35760008385830101525b9695505050505050565b600080604083850312156200020157600080fd5b82516001600160401b03808211156200021957600080fd5b620002278683870162000136565b935060208501519150808211156200023e57600080fd5b506200024d8582860162000136565b9150509250929050565b600181811c908216806200026c57607f821691505b602082108114156200028e57634e487b7160e01b600052602260045260246000fd5b50919050565b61068d80620002a46000396000f3fe60806040526004361061007f5760003560e01c8063be18504c1161004e578063be18504c14610131578063c47f00271461014e578063d39538221461016e578063f78e3e931461018957600080fd5b806317d7de7c146100af5780631a092541146100da5780632e1a7d4d146100ef57806390c3f38f1461011157600080fd5b366100aa5733600090815260016020526040812080543492906100a3908490610476565b9091555050005b600080fd5b3480156100bb57600080fd5b506100c46101ab565b6040516100d1919061048e565b60405180910390f35b3480156100e657600080fd5b506100c4610271565b3480156100fb57600080fd5b5061010f61010a3660046104e3565b6102ab565b005b34801561011d57600080fd5b5061010f61012c366004610512565b610351565b34801561013d57600080fd5b50475b6040519081526020016100d1565b34801561015a57600080fd5b5061010f610169366004610512565b61038e565b34801561017a57600080fd5b506040513081526020016100d1565b34801561019557600080fd5b5033600090815260016020526040902054610140565b6000546060906001600160a01b031633146101e15760405162461bcd60e51b81526004016101d8906105c3565b60405180910390fd5b600280546101ee90610605565b80601f016020809104026020016040519081016040528092919081815260200182805461021a90610605565b80156102675780601f1061023c57610100808354040283529160200191610267565b820191906000526020600020905b81548152906001019060200180831161024a57829003601f168201915b5050505050905090565b6000546060906001600160a01b0316331461029e5760405162461bcd60e51b81526004016101d8906105c3565b600380546101ee90610605565b336000908152600160205260409020546102fc5760405162461bcd60e51b815260206004820152601260248201527163616e27742074616b65206e6f7468696e6760701b60448201526064016101d8565b336000908152600160205260408120805483929061031b908490610640565b9091555050604051339082156108fc029083906000818181858888f1935050505015801561034d573d6000803e3d6000fd5b5050565b6000546001600160a01b0316331461037b5760405162461bcd60e51b81526004016101d8906105c3565b805161034d9060039060208401906103c7565b6000546001600160a01b031633146103b85760405162461bcd60e51b81526004016101d8906105c3565b805161034d9060029060208401905b8280546103d390610605565b90600052602060002090601f0160209004810192826103f5576000855561043b565b82601f1061040e57805160ff191683800117855561043b565b8280016001018555821561043b579182015b8281111561043b578251825591602001919060010190610420565b5061044792915061044b565b5090565b5b80821115610447576000815560010161044c565b634e487b7160e01b600052601160045260246000fd5b6000821982111561048957610489610460565b500190565b600060208083528351808285015260005b818110156104bb5785810183015185820160400152820161049f565b818111156104cd576000604083870101525b50601f01601f1916929092016040019392505050565b6000602082840312156104f557600080fd5b5035919050565b634e487b7160e01b600052604160045260246000fd5b60006020828403121561052457600080fd5b813567ffffffffffffffff8082111561053c57600080fd5b818401915084601f83011261055057600080fd5b813581811115610562576105626104fc565b604051601f8201601f19908116603f0116810190838211818310171561058a5761058a6104fc565b816040528281528760208487010111156105a357600080fd5b826020860160208301376000928101602001929092525095945050505050565b60208082526022908201527f6d7573742062652063726561746f7220746f207365742064657363726970746960408201526137b760f11b606082015260800190565b600181811c9082168061061957607f821691505b6020821081141561063a57634e487b7160e01b600052602260045260246000fd5b50919050565b60008282101561065257610652610460565b50039056fea26469706673582212203b5cc0fefe8b652807f05e9708d1c68e244f3c6b6adb781929d3e8700621488d64736f6c634300080a0033a26469706673582212204cc04dfe2c6b2e5cde3c6b7185088e36b490ef6b39bf1cac4e36c2fdec51fc9e64736f6c634300080a0033",
    "sourcePath": "c:/Dropbox/allSaves/smartContracts/blockchain-voting-mechanism-main/contracts/proposalFactory.sol",
    "compiler": {
        "name": "solc",
        "version": "0.8.10+commit.fc410830"
    },
    "functionHashes": {
        "allProposal()": "bb3d1d23",
        "makeNewProposal(string,string)": "4181469f",
        "proposals(uint256)": "013cf08b"
    },
    "gasEstimates": {
        "creation": {
            "codeDepositCost": "663600",
            "executionCost": "696",
            "totalCost": "664296"
        },
        "external": {
            "allProposal()": "infinite",
            "makeNewProposal(string,string)": "infinite",
            "proposals(uint256)": "4581"
        }
    }
}